:1000BC003F065B4F666D7D077F6FFEFDFBF7EFDF45
:0200CC00BF7FF4
:0300D8000108001C
:10008F00E4F508E5089000C693F580D2A7C2A7E56E
:10009F00089000BC93F580D2A6C2A67F647E0012A2
:0D00AF0000CE0508E508C3940840D880D3B2
:0A00CE00EF1F70011E144E70F722A0
:03000000020003F8
:0C000300787FE4F6D8FD75810802004A01
:10000F0002008FE493A3F8E493A34003F68001F278
:10001F0008DFF48029E493A3F85407240CC8C333F2
:10002F00C4540F4420C8834004F456800146F6DFC1
:10003F00E4800B01020408102040809000D8E47E79
:10004F00019360BCA3FF543F30E509541FFEE493B6
:10005F00A360010ECF54C025E060A840B8E493A37D
:10006F00FAE493A3F8E493A3C8C582C8CAC583CAA8
:10007F00F0A3C8C582C8CAC583CADFE9DEE780BE60
:0100DB000024
:00000001FF
