:03000000020800F3
:0C080000787FE4F6D8FD758115020847EA
:0D0909000B08FFC0F9A4B0999282F880900D
:0D08FB00EFD3940040077EF8DEFE1F80F36F
:0109080022CC
:10088C007590F0E59054F0F51564F0605F7F0A12F6
:10089C0008FBE51564F060547590FE859015E51520
:1008AC002482601B24C0601224E0600924F07012C2
:1008BC00751301800D751302800875130380037581
:1008CC0013047590FD859015E5152483601B24C0D9
:1008DC00601224E0600924F07012751305800D7508
:0E08EC00130680087513078003751308AF13F9
:0108FA0022DB
:0909210074082514F8E6F58022A3
:0A09170012088C8F1412092180F6DB
:10080C00020917E493A3F8E493A34003F68001F2E2
:10081C0008DFF48029E493A3F85407240CC8C333ED
:10082C00C4540F4420C8834004F456800146F6DFBC
:10083C00E4800B0102040810204080900909E47E3A
:10084C00019360BCA3FF543F30E509541FFEE493B1
:10085C00A360010ECF54C025E060A840B8E493A378
:10086C00FAE493A3F8E493A3C8C582C8CAC583CAA3
:10087C00F0A3C8C582C8CAC583CADFE9DEE780BE5B
:0109160000E0
:00000001FF
