:03000000020C8A65
:0C0C8A00787FE4F6D8FD758136020CD1AD
:100DEC000B11C0F9A4B0999282F88090BF0A1E40F2
:100DFC00792430191202780010013400012D000101
:100E0C002F00011000020E07DB020C0001021C0077
:010E1C0001D4
:100E1E00E4FEEED39F500CE4FD0DEDD394F840F9B3
:030E2E000E80EF44
:010E3100229E
:10080000E51060030208F8E530B408004003020870
:10081000F8900818F82828730208300208580208CF
:100820007F0208840208AB0208D20208DA0208E755
:10083000E531B4051B0508E508D394325005E4F50D
:10084000B0800375B001E508B46408E4F5088003DE
:1008500075B001E52F0208DFE531B4051B0509E598
:1008600009D394325005E4F5B0800375B002E50970
:10087000B46408E4F509800375B002E52F806D7556
:10088000B0048051E531B4061B050AE50AD3943261
:100890005005E4F5B0800375B008E50AB46408E4D7
:1008A000F50A800375B008E52D8034E531B4061BE8
:1008B000050BE50BD394325005E4F5B0800375B019
:1008C00010E50BB46408E4F50B800375B010E52D5A
:1008D000801A75B020851B80801E75B040E5347588
:1008E000F00A842411800D75B080E53475F00A8417
:1008F000741125F0F8E6F580E51064016003020A42
:10090000AFE53024F8B408004003020AAF90091B99
:1009100075F003A4C58325F0C5837302093302096A
:100920006102098E0209BF0209E8020A15020A479C
:10093000020A7AE531B4041B052AE52AD394325021
:1009400005E4F5B0800375B001E52AB46408E4F568
:100950002A800375B001AE0EAF0F7C037DE8020A5A
:1009600072E531B4041B052BE52BD394325005E41A
:10097000F5B0800375B002E52BB46408E4F52B8074
:100980000375B002AE0EAF0F7C007D64802BE531A5
:10099000B4041B052CE52CD394325005E4F5B0804B
:1009A0000375B004E52CB46408E4F52C800375B03D
:1009B00004AE0EAF0F7C007D0A120D97020AA1E56E
:1009C00031B4041B052EE52ED394325005E4F5B066
:1009D000800375B008E52EB46408E4F52E80037535
:1009E000B008AE0EAF0F8054E531B4031B0528E507
:1009F00028D394325005E4F5B0800375B010E52893
:100A0000B46408E4F528800375B010AE0CAF0D7C1B
:100A1000007D0A805DE531B4031B0529E529D394E7
:100A2000325005E4F5B0800375B020E529B46408C0
:100A3000E4F529800375B020AE0CAF0D7C007D0A73
:100A4000120D97741E8063E531B4021B0533E53344
:100A5000D394325005E4F5B0800375B040E533B46B
:100A60006408E4F533800375B040AE1CAF1D7C0014
:100A70007D0A120D9774112F8031E531B4021B05E8
:100A800032E532D394325005E4F5B0800375B0807E
:100A9000E532B46408E4F532800375B080AE1CAF73
:100AA0001D7C007D0A120D9774112DF8E6F5802249
:100BD00020902B7F32120E1E209023E510700F05FF
:100BE0002FE52FB41803E4F52F7531058010E510BB
:100BF000B4010B050FE50F7002050E75310420914D
:100C0000367F32120E1E20912EE510700F052DE555
:100C10002DB43C03E4F52D753106801BE510B401BD
:100C200016050DE50D7002050C640D450C7005F5FB
:100C30000C750D017531032092297F32120E1E2092
:100C40009221E5107008F534F52FF52D8015051D5E
:100C5000E51D7002051C6420451C7004F51CF51D83
:100C60007531022093237F32120E1E20931BE53133
:100C70006005E4F53180020510E510B40208E4F5E2
:0A0C800010F531F53022753008221E
:100AB000051DE51D7002051CE50D30E015E51D6402
:100AC00020451C700DF51C751D01050DE50D70020E
:100AD000050CE50D6402450C704FE50F5403700ED4
:100AE000AE0EAF0FFC7D64120D97ED4C700FAE0E85
:100AF000AF0F7C017D90120D97ED4C7017E51D64D2
:100B00001E451C7024F51C751D01050DE50D7019A1
:100B1000050C8015E51D641D451C700DF51C751D2B
:100B200001050DE50D7002050CE50D6408450C701E
:100B300015E51D6420451C700DF51C751D01050D86
:100B4000E50D7002050CE50D6404450C7015E51DFE
:100B5000641F451C700DF51C751D01050DE50D701C
:100B600002050CE50D6406450C7015E51D641F4576
:100B70001C700DF51C751D01050DE50D7002050CB1
:100B8000E50D640A450C7015E51D641F451C700DCC
:100B9000F51C751D01050DE50D7002050CE50D64D4
:100BA0000C450C7015E51D641F451C700DF51C757A
:100BB0001D01050DE50D7002050CE50D640D450CDC
:100BC000700DF50C750D01050FE50F7002050E2275
:100E3200758901758CFC758A18D2A9D2AFD28C1231
:040E42000BD080FB56
:03000B00020D16CD
:100D1600C0E0C0F0C083C082C0D075D000C000C0A3
:070D260004C005C006C00770
:100D2D00758CFC758A180536E5367002053564E854
:100D3D007004E53564037025F535F5360534E53475
:100D4D00B43C1A753400052DE52DB43C10752D00FD
:100D5D00052FE52FB41806752F00120AB00530E5E2
:100D6D00107007E530B4080A8005E530B41003753E
:050D7D00300012080027
:100D8200D007D006D005D004D000D0D0D082D083F6
:050D9200D0F0D0E032BA
:100C9600020E32E493A3F8E493A34003F68001F234
:100CA60008DFF48029E493A3F85407240CC8C3335F
:100CB600C4540F4420C8834004F456800146F6DF2E
:100CC600E4800B0102040810204080900DECE47EC5
:100CD600019360BCA3FF543F30E509541FFEE49323
:100CE600A360010ECF54C025E060A840B8E493A3EA
:100CF600FAE493A3F8E493A3C8C582C8CAC583CA15
:100D0600F0A3C8C582C8CAC583CADFE9DEE780BECC
:010E1D0000D4
:100D9700BC000BBE0029EF8DF084FFADF022E4CC40
:100DA700F875F008EF2FFFEE33FEEC33FCEE9DEC09
:100DB700984005FCEE9DFE0FD5F0E9E4CEFD22ED4F
:100DC700F8F5F0EE8420D21CFEADF075F008EF2F99
:100DD700FFED33FD4007985006D5F0F222C398FD8A
:050DE7000FD5F0EA2227
:00000001FF
