:03000000020921D1
:0C092100787FE4F6D8FD75810A0208A179
:1008000006010305010103010205010201020206BE
:1008100000010500010601040301020501010601B2
:1008200001050102030101020101010102060002AA
:10083000050102030102020108020106030002058C
:100840000104050002060002030106020002010184
:10085000080501060300020201020101020600026E
:10086000010102050008000000F2F3F5F5F6F7F8C3
:10087000F9F9FAFAFBFBFCFCFCFDFDFDFDFEFEFEBA
:10088000FEFEFEFEFF42C117B6D0D1B621E18CD8E4
:1008900068E95B8FEE446BB4F42D4777A2B6DAFAC1
:0108A0001641
:03092D00DFFE22C8
:1008DE00AE07AF061EEF600C7FF512092D7FF512E5
:0508EE00092D80EE223F
:0208F300AD074F
:1008F500E4FCECC39D50087FFA1208DE0C80F3C2BD
:010905008C65
:0109060022CE
:03000B00020907E0
:0D090700C28CB29285098C850A8AD28C328E
:0D09140085098C850A8AD28CAF080208F391
:1008A100438901D2AFD2A9E4FBEBC3946850F8EBC2
:1008B1009008019375F007A4FFEB900800932F14A3
:1008C100FA90086993F509EA90088593F50AEB9087
:0D08D100080293F5080B0B0B12091480CCE4
:00000001FF
