:03000000020136C4
:0C013600787FE4F6D8FD75811902017D88
:1001C2000B08C0F9A4B0999282F88090BF01150083
:0601D200011300011400FE
:1001D900758901758CFC758A18D2A9D2AFD28C8029
:0101E900FE17
:03000B0002000EE2
:0F000E00C0E0C0F0C083C082C0D075D000C00079
:10001D00758CFC758A180519E519700205180517F8
:10002D00E516B40800506690003BF82828730200CE
:10003D005302005A02006102006602006D02007454
:10004D0002007C02008975A001E514802775A002CD
:10005D00E514802D75A004801175A008E51380149A
:10006D0075A010E513801A75A020851280801E756D
:10007D00A040E51575F00A842408800D75A080E573
:10008D001575F00A84740825F0F8E6F5800516E577
:10009D0016B40803751600E51964E87004E51864D4
:1000AD0003704BF518F519209023E515701B751588
:1000BD003BE513701075133BE5147005751417802F
:1000CD002D15148029151380251515802130901EAE
:1000DD000515E515B43C177515000513E513B43C6E
:1000ED000D7513000514E514B41803751400E51708
:1000FD0064647028F51720960A0513E513B43C03C4
:10010D0075130020970A0514E514B418037514002F
:0C011D0020910975140075130075150081
:0D012900D000D0D0D082D083D0F0D0E03212
:100142000201D9E493A3F8E493A34003F68001F2F9
:1001520008DFF48029E493A3F85407240CC8C333BE
:10016200C4540F4420C8834004F456800146F6DF8D
:10017200E4800B01020408102040809001C2E47E5A
:10018200019360BCA3FF543F30E509541FFEE49382
:10019200A360010ECF54C025E060A840B8E493A349
:1001A200FAE493A3F8E493A3C8C582C8CAC583CA74
:1001B200F0A3C8C582C8CAC583CADFE9DEE780BE2C
:0101D8000026
:00000001FF
