:10000300750803750920E4F50AF50B7590FF7F6009
:100013007EEA12007F750A00750B01C3E50B950993
:10002300E50A95085017E4F590AF0BAE0A12007F6E
:10003300120071050BE50B70E2050A80DEE4F59012
:10004300E50924FFF50BE50834FFF50AD3E50B9426
:1000530000E50A940040B4E4F590AF0BAE0A120039
:0E0063007F120071E50B150B70E2150A80DEAE
:0E0071007590FFC3E509950BFFE508950AFEA3
:0A007F00EF1F70011E144E70F722EF
:0300000002008972
:0C008900787FE4F6D8FD75810B020003BF
:00000001FF
