:03000000020C17D8
:0C0C1700787FE4F6D8FD75811D020C5EAC
:0E0D52000C08C0F9A4B0999282F88090BFC638
:040D43007FBC7E02F1
:0B0D4700EF1FAC0670011E4C70F6227E
:100CDB00E4FDD2A47F08FE120D47C2A47F507E0014
:100CEB00120D47D2A47F0E7E00120D47A2A4E4334F
:080CFB00FD7F147E00020D478D
:100D0300E4FB7D08C2A4EBC313FBD2A430A40343CA
:0F0D130003807F057E00120D47DDE9AF037E00F0
:010D220022AE
:020D2300AD071A
:100D25007B08C2A4ED1392A47F057E00120D47D265
:0E0D3500A4EDC313FDDBEB7F047E00020D472F
:100CA300E4FAFFFDFCF519F518F517F516120CDB40
:100CB3007FCC120D237F44120D23120CDB7FCC1249
:100CC3000D237FBE120D23120D03AA07120D03ADD0
:070CD30007EDFCEAAE04FF8F
:010CDA0022F7
:040B20008E168F1787
:100B2400E51654F0FEEEB4F01DE517F4FFE516F4F7
:100B3400FEEF2401F517E43EF5167580FF8512805B
:100B440075B001120D43E51654F0FEE47003EE6433
:100B5400F0601B7580FFAE1CAF1D7C007D64120A23
:100B6400BD74082FF8E6F58075B002120D437C00C1
:100B7400E517540FFDE4120A038F1B8E1A8D198C8E
:100B840018E4FFFE7D207C3FAB1BAA1AA919A81804
:100B94001208F8E4FBFA79C0783E120807120A3CFE
:100BA400AB07E516C4F854F0C868F51CE517C4543F
:100BB4000F48F51D7580FFAE1CAF1D7C007D0A1229
:100BC4000ABD7C007D0A120ABD74082DF8E6F58082
:100BD40075B004120D437580FFAE1CAF1D7C007D03
:100BE4000A120ABD74082DF8E6547FF58075B00822
:100BF400120D437580FF74082BF8E6F58075B0106C
:100C0400120D437580FF85138075B020120D43E4E7
:020C1400F5B039
:010C160022BB
:0C0D6100120CA38E148F15120B2080F4CE
:10080000020AA8E86480F8E933E83360110460F074
:10081000ED33EC337009E8FCE9FDEAFEEBFF22045E
:1008200060DED3EB9FEA9EE99DE8C2E78CF0C2F759
:1008300095F0400CE8CCF8E9CDF9EACEFAEBCFFB25
:10084000120A7385D0F05804700320D5B3E8047001
:10085000075002B2D5020AB292D5EC0460F7E4CC9C
:10086000C0E0C398F8603B94186008400DD0E0FBEE
:10087000020A8AE4FBFAC9FC8028E830E406E4C9ED
:10088000FBE4CAFCE830E305E4C9CACBFCE8540742
:100890006010F8C3E913F9EA13FAEB13FBEC13FC4D
:1008A000D8F130F52FC3E49CFCEF9BFFEE9AFEEDF0
:1008B00099FDD0E0FBEF4E4D4C701222DB03020A93
:1008C000AFEC2CFCEF33FFEE33FEED33FDED30E704
:1008D000EB020A8AEF2BFFEE3AFEED39FDD0E0FB8A
:1008E00050130BBB0003020AB2ED13FDEE13FEEF33
:0808F00013FFEC13FC020A8A5D
:1008F800EC4D6011E8497017ED33EC3304600DE4FA
:10090800FCFFFEFD22E933E8330470F8020AA8125E
:100918000A7358046009E4CC24815006285009025F
:100928000AB2284003020AAFC0E0EB4A7044B9801B
:1009380006D0E0FB020A9EEF4E701CBD8008EBFF5C
:10094800EAFEE9FD80EBE98DF0A4FEE5F00209E19D
:10095800E9CDF9EAFEEBFFEF89F0A4FCE5F0CE89DA
:10096800F0A42EFFE435F0CD89F0A42DFEE435F097
:100978008067EF4E7005BD80D780C3EF8BF0A4ACC5
:10098800F0EE8BF0A42CFCE435F0F8EF8AF0A42C00
:10099800E5F038FCE433CB8DF0A42CFCE5F03BF813
:1009A800EE8AF0A42CFCE5F038F8E433CF89F0A403
:1009B8002CFCE5F038CF3400CE89F0A42FFFE5F009
:1009C8003EFEE433C98DF0A42EFEE5F039CD8AF061
:1009D800A42FFFE5F03EFEE43DFD33D0E0FB5007D9
:1009E8000BBB000F020AB2EC2CFCEF33FFEE33FE18
:0609F800ED33FD020A8A46
:1009FE0075F020800E75F010800575F0087D007E74
:100A0E00007F003392D530D503120B12EC33401019
:100A1E00EF33FFEE33FEED33FDEC33FCD5F0ED227C
:0E0A2E00E5F0247EA2D513CC92E7CDCEFF22B8
:100A3C00EDD2E7CD33EC3392D524814006E4FFFEB2
:100A4C00FDFC22FCE4CFCECDCC24E0501174FF8011
:100A5C00EDC3CC13CCCD13CDCE13CECF13CF0470AE
:070A6C00F030D5DE020B1291
:100A7300E9D2E7C933E833F892D5EDD2E7CD33ECC9
:070A830033FC5002B2D52242
:100A8A00EC30E7100FBF000C0EBE00080DBD0004CD
:100A9A000BEB6014A2D5EB13FCED92E7FD2274FF79
:100AAA00FCFDFEFF22E480F8A2D574FF13FC7D80D2
:030ABA00E480EFE6
:100C2300020D61E493A3F8E493A34003F68001F279
:100C330008DFF48029E493A3F85407240CC8C333D2
:100C4300C4540F4420C8834004F456800146F6DFA1
:100C5300E4800B0102040810204080900D52E47ED2
:100C6300019360BCA3FF543F30E509541FFEE49396
:100C7300A360010ECF54C025E060A840B8E493A35D
:100C8300FAE493A3F8E493A3C8C582C8CAC583CA88
:100C9300F0A3C8C582C8CAC583CADFE9DEE780BE40
:010D60000092
:100ABD00BC000BBE0029EF8DF084FFADF022E4CC1D
:100ACD00F875F008EF2FFFEE33FEEC33FCEE9DECE6
:100ADD00984005FCEE9DFE0FD5F0E9E4CEFD22ED2C
:100AED00F8F5F0EE8420D21CFEADF075F008EF2F76
:100AFD00FFED33FD4007985006D5F0F222C398FD67
:050B0D000FD5F0EA2203
:0E0B1200C3E49FFFE49EFEE49DFDE49CFC22F4
:00000001FF
